{
  "_format": "hh-sol-artifact-1",
  "contractName": "RollupNC",
  "sourceName": "contracts/RollupNC.sol",
  "abi": [
    {
      "inputs": [
        {
          "internalType": "address",
          "name": "_mimcContractAddr",
          "type": "address"
        },
        {
          "internalType": "address",
          "name": "_mimcMerkleContractAddr",
          "type": "address"
        },
        {
          "internalType": "address",
          "name": "_tokenRegistryAddr",
          "type": "address"
        }
      ],
      "stateMutability": "nonpayable",
      "type": "constructor"
    },
    {
      "anonymous": false,
      "inputs": [
        {
          "indexed": false,
          "internalType": "uint256",
          "name": "tokenType",
          "type": "uint256"
        },
        {
          "indexed": false,
          "internalType": "address",
          "name": "tokenContract",
          "type": "address"
        }
      ],
      "name": "RegisteredToken",
      "type": "event"
    },
    {
      "anonymous": false,
      "inputs": [
        {
          "indexed": false,
          "internalType": "uint256[2]",
          "name": "pubkey",
          "type": "uint256[2]"
        },
        {
          "indexed": false,
          "internalType": "uint256",
          "name": "amount",
          "type": "uint256"
        },
        {
          "indexed": false,
          "internalType": "uint256",
          "name": "tokenType",
          "type": "uint256"
        }
      ],
      "name": "RequestDeposit",
      "type": "event"
    },
    {
      "anonymous": false,
      "inputs": [
        {
          "indexed": false,
          "internalType": "uint256",
          "name": "currentRoot",
          "type": "uint256"
        },
        {
          "indexed": false,
          "internalType": "uint256",
          "name": "oldRoot",
          "type": "uint256"
        },
        {
          "indexed": false,
          "internalType": "uint256",
          "name": "txRoot",
          "type": "uint256"
        }
      ],
      "name": "UpdatedState",
      "type": "event"
    },
    {
      "anonymous": false,
      "inputs": [
        {
          "components": [
            {
              "internalType": "uint256",
              "name": "pubkeyX",
              "type": "uint256"
            },
            {
              "internalType": "uint256",
              "name": "pubkeyY",
              "type": "uint256"
            },
            {
              "internalType": "uint256",
              "name": "index",
              "type": "uint256"
            },
            {
              "internalType": "uint256",
              "name": "toX",
              "type": "uint256"
            },
            {
              "internalType": "uint256",
              "name": "toY",
              "type": "uint256"
            },
            {
              "internalType": "uint256",
              "name": "nonce",
              "type": "uint256"
            },
            {
              "internalType": "uint256",
              "name": "amount",
              "type": "uint256"
            },
            {
              "internalType": "uint256",
              "name": "token_type_from",
              "type": "uint256"
            },
            {
              "internalType": "uint256",
              "name": "txRoot",
              "type": "uint256"
            },
            {
              "internalType": "uint256[]",
              "name": "position",
              "type": "uint256[]"
            },
            {
              "internalType": "uint256[]",
              "name": "proof",
              "type": "uint256[]"
            }
          ],
          "indexed": false,
          "internalType": "struct RollupNC.TxInfo",
          "name": "accountInfo",
          "type": "tuple"
        },
        {
          "indexed": false,
          "internalType": "address",
          "name": "recipient",
          "type": "address"
        }
      ],
      "name": "Withdraw",
      "type": "event"
    },
    {
      "inputs": [],
      "name": "BAL_DEPTH",
      "outputs": [
        {
          "internalType": "uint256",
          "name": "",
          "type": "uint256"
        }
      ],
      "stateMutability": "view",
      "type": "function"
    },
    {
      "inputs": [],
      "name": "TX_DEPTH",
      "outputs": [
        {
          "internalType": "uint256",
          "name": "",
          "type": "uint256"
        }
      ],
      "stateMutability": "view",
      "type": "function"
    },
    {
      "inputs": [
        {
          "internalType": "address",
          "name": "tokenContractAddress",
          "type": "address"
        }
      ],
      "name": "approveToken",
      "outputs": [],
      "stateMutability": "nonpayable",
      "type": "function"
    },
    {
      "inputs": [],
      "name": "coordinator",
      "outputs": [
        {
          "internalType": "address",
          "name": "",
          "type": "address"
        }
      ],
      "stateMutability": "view",
      "type": "function"
    },
    {
      "inputs": [],
      "name": "currentRoot",
      "outputs": [
        {
          "internalType": "uint256",
          "name": "",
          "type": "uint256"
        }
      ],
      "stateMutability": "view",
      "type": "function"
    },
    {
      "inputs": [
        {
          "internalType": "uint256[2]",
          "name": "pubkey",
          "type": "uint256[2]"
        },
        {
          "internalType": "uint256",
          "name": "amount",
          "type": "uint256"
        },
        {
          "internalType": "uint256",
          "name": "tokenType",
          "type": "uint256"
        }
      ],
      "name": "deposit",
      "outputs": [],
      "stateMutability": "payable",
      "type": "function"
    },
    {
      "inputs": [],
      "name": "depositSubtreeHeight",
      "outputs": [
        {
          "internalType": "uint256",
          "name": "",
          "type": "uint256"
        }
      ],
      "stateMutability": "view",
      "type": "function"
    },
    {
      "inputs": [
        {
          "internalType": "uint256",
          "name": "",
          "type": "uint256"
        }
      ],
      "name": "deposits",
      "outputs": [
        {
          "internalType": "uint256",
          "name": "",
          "type": "uint256"
        }
      ],
      "stateMutability": "view",
      "type": "function"
    },
    {
      "inputs": [],
      "name": "mimc",
      "outputs": [
        {
          "internalType": "contract IMiMC",
          "name": "",
          "type": "address"
        }
      ],
      "stateMutability": "view",
      "type": "function"
    },
    {
      "inputs": [],
      "name": "mimcMerkle",
      "outputs": [
        {
          "internalType": "contract IMiMCMerkle",
          "name": "",
          "type": "address"
        }
      ],
      "stateMutability": "view",
      "type": "function"
    },
    {
      "inputs": [
        {
          "internalType": "uint256",
          "name": "",
          "type": "uint256"
        }
      ],
      "name": "pendingDeposits",
      "outputs": [
        {
          "internalType": "uint256",
          "name": "",
          "type": "uint256"
        }
      ],
      "stateMutability": "view",
      "type": "function"
    },
    {
      "inputs": [
        {
          "internalType": "uint256",
          "name": "subtreeDepth",
          "type": "uint256"
        },
        {
          "internalType": "uint256[]",
          "name": "subtreePosition",
          "type": "uint256[]"
        },
        {
          "internalType": "uint256[]",
          "name": "subtreeProof",
          "type": "uint256[]"
        }
      ],
      "name": "processDeposits",
      "outputs": [
        {
          "internalType": "uint256",
          "name": "",
          "type": "uint256"
        }
      ],
      "stateMutability": "nonpayable",
      "type": "function"
    },
    {
      "inputs": [],
      "name": "queueNumber",
      "outputs": [
        {
          "internalType": "uint256",
          "name": "",
          "type": "uint256"
        }
      ],
      "stateMutability": "view",
      "type": "function"
    },
    {
      "inputs": [
        {
          "internalType": "address",
          "name": "tokenContractAddress",
          "type": "address"
        }
      ],
      "name": "registerToken",
      "outputs": [],
      "stateMutability": "nonpayable",
      "type": "function"
    },
    {
      "inputs": [],
      "name": "tokenContract",
      "outputs": [
        {
          "internalType": "contract IERC20",
          "name": "",
          "type": "address"
        }
      ],
      "stateMutability": "view",
      "type": "function"
    },
    {
      "inputs": [],
      "name": "tokenRegistry",
      "outputs": [
        {
          "internalType": "contract ITokenRegistry",
          "name": "",
          "type": "address"
        }
      ],
      "stateMutability": "view",
      "type": "function"
    },
    {
      "inputs": [],
      "name": "updateNumber",
      "outputs": [
        {
          "internalType": "uint256",
          "name": "",
          "type": "uint256"
        }
      ],
      "stateMutability": "view",
      "type": "function"
    },
    {
      "inputs": [
        {
          "internalType": "uint256[]",
          "name": "proof",
          "type": "uint256[]"
        },
        {
          "internalType": "uint256[]",
          "name": "input",
          "type": "uint256[]"
        }
      ],
      "name": "updateState",
      "outputs": [],
      "stateMutability": "nonpayable",
      "type": "function"
    },
    {
      "inputs": [
        {
          "internalType": "uint256",
          "name": "",
          "type": "uint256"
        }
      ],
      "name": "updates",
      "outputs": [
        {
          "internalType": "uint256",
          "name": "",
          "type": "uint256"
        }
      ],
      "stateMutability": "view",
      "type": "function"
    },
    {
      "inputs": [
        {
          "components": [
            {
              "internalType": "uint256",
              "name": "pubkeyX",
              "type": "uint256"
            },
            {
              "internalType": "uint256",
              "name": "pubkeyY",
              "type": "uint256"
            },
            {
              "internalType": "uint256",
              "name": "index",
              "type": "uint256"
            },
            {
              "internalType": "uint256",
              "name": "toX",
              "type": "uint256"
            },
            {
              "internalType": "uint256",
              "name": "toY",
              "type": "uint256"
            },
            {
              "internalType": "uint256",
              "name": "nonce",
              "type": "uint256"
            },
            {
              "internalType": "uint256",
              "name": "amount",
              "type": "uint256"
            },
            {
              "internalType": "uint256",
              "name": "token_type_from",
              "type": "uint256"
            },
            {
              "internalType": "uint256",
              "name": "txRoot",
              "type": "uint256"
            },
            {
              "internalType": "uint256[]",
              "name": "position",
              "type": "uint256[]"
            },
            {
              "internalType": "uint256[]",
              "name": "proof",
              "type": "uint256[]"
            }
          ],
          "internalType": "struct RollupNC.TxInfo",
          "name": "txInfo",
          "type": "tuple"
        },
        {
          "internalType": "address payable",
          "name": "recipient",
          "type": "address"
        },
        {
          "internalType": "uint256[]",
          "name": "proof",
          "type": "uint256[]"
        }
      ],
      "name": "withdraw",
      "outputs": [],
      "stateMutability": "nonpayable",
      "type": "function"
    }
  ],
  "bytecode": "0x60806040526004600c556002600d553480156200001b57600080fd5b50604051620088a0380380620088a08339810160408190526200003e91620001f7565b600080546001600160a01b038086166001600160a01b0319928316179092556001805485841690831681179091556002805493851693909216929092179055600c5460405163c34ca64160e01b815263c34ca64191620000a49160040190815260200190565b60206040518083038186803b158015620000bd57600080fd5b505afa158015620000d2573d6000803e3d6000fd5b505050506040513d601f19601f82011682018060405250810190620000f8919062000240565b600655600780546001600160a01b0319163317905560006009819055600a819055600b556040516200012a90620001be565b604051809103906000f08015801562000147573d6000803e3d6000fd5b50600480546001600160a01b0319166001600160a01b03929092169190911790556040516200017690620001cc565b604051809103906000f08015801562000193573d6000803e3d6000fd5b50600580546001600160a01b0319166001600160a01b03929092169190911790555062000259915050565b61319e806200256583390190565b61319d806200570383390190565b80516001600160a01b0381168114620001f257600080fd5b919050565b6000806000606084860312156200020c578283fd5b6200021784620001da565b92506200022760208501620001da565b91506200023760408501620001da565b90509250925092565b60006020828403121562000252578081fd5b5051919050565b6122fc80620002696000396000f3fe60806040526004361061011f5760003560e01c80639d23c4c7116100a0578063ca717ee211610064578063ca717ee21461032d578063d63a2c1814610343578063df567e1114610359578063fdab463d14610379578063ff1bbc4e1461038f5761011f565b80639d23c4c714610273578063a793279414610293578063aeaa98cf146102b3578063b02c43d0146102d3578063b4c2f727146103005761011f565b8063538f9406116100e7578063538f9406146101d357806355a373d6146101f357806376385cc3146102135780637f38a9831461023357806380b2edd8146102535761011f565b806309824a80146101245780630a009097146101465780631b6a2481146101835780632882dd98146101a75780632fa6779a146101bd575b600080fd5b34801561013057600080fd5b5061014461013f366004611c44565b6103a2565b005b34801561015257600080fd5b50600754610166906001600160a01b031681565b6040516001600160a01b0390911681526020015b60405180910390f35b34801561018f57600080fd5b50610199600b5481565b60405190815260200161017a565b3480156101b357600080fd5b50610199600a5481565b3480156101c957600080fd5b5061019960095481565b3480156101df57600080fd5b506101446101ee366004611cf2565b610403565b3480156101ff57600080fd5b50600354610166906001600160a01b031681565b34801561021f57600080fd5b50600054610166906001600160a01b031681565b34801561023f57600080fd5b50600154610166906001600160a01b031681565b34801561025f57600080fd5b5061014461026e366004611c44565b6106c7565b34801561027f57600080fd5b50600254610166906001600160a01b031681565b34801561029f57600080fd5b506101996102ae366004611e9b565b610817565b3480156102bf57600080fd5b506101996102ce366004611ecb565b610838565b3480156102df57600080fd5b506101996102ee366004611e9b565b600e6020526000908152604090205481565b34801561030c57600080fd5b5061019961031b366004611e9b565b600f6020526000908152604090205481565b34801561033957600080fd5b50610199600c5481565b34801561034f57600080fd5b50610199600d5481565b34801561036557600080fd5b50610144610374366004611d73565b610aa0565b34801561038557600080fd5b5061019960065481565b61014461039d366004611c7c565b6112ff565b6002546040516213049560e71b81526001600160a01b038381166004830152909116906309824a8090602401600060405180830381600087803b1580156103e857600080fd5b505af11580156103fc573d6000803e3d6000fd5b5050505050565b6007546001600160a01b0316331461042b57634e487b7160e01b600052600160045260246000fd5b8060028151811061044c57634e487b7160e01b600052603260045260246000fd5b6020026020010151600654146104b35760405162461bcd60e51b815260206004820152602160248201527f696e70757420646f6573206e6f74206d617463682063757272656e7420726f6f6044820152601d60fa1b60648201526084015b60405180910390fd5b6004805460405163330deb9f60e01b81526001600160a01b039091169163330deb9f916104e4918591879101611f92565b60206040518083038186803b1580156104fc57600080fd5b505afa158015610510573d6000803e3d6000fd5b505050506040513d601f19601f820116820180604052508101906105349190611d53565b6105795760405162461bcd60e51b815260206004820152601660248201527514d3905492c81c1c9bdbd9881a5cc81a5b9d985b1a5960521b60448201526064016104aa565b8060008151811061059a57634e487b7160e01b600052603260045260246000fd5b6020908102919091010151600655600b80549060006105b88361223d565b9190505550600b54600f6000836001815181106105e557634e487b7160e01b600052603260045260246000fd5b60200260200101518152602001908152602001600020819055507fbe4212065768908e69f6c63172b1d155abe731f87bfc61b83a5c3b93f12c853f8160008151811061064157634e487b7160e01b600052603260045260246000fd5b60200260200101518260018151811061066a57634e487b7160e01b600052603260045260246000fd5b60200260200101518360028151811061069357634e487b7160e01b600052603260045260246000fd5b60200260200101516040516106bb939291909283526020830191909152604082015260600190565b60405180910390a15050565b6007546001600160a01b031633146106ef57634e487b7160e01b600052600160045260246000fd5b6002546040516310165dbb60e31b81526001600160a01b038381166004830152909116906380b2edd890602401600060405180830381600087803b15801561073657600080fd5b505af115801561074a573d6000803e3d6000fd5b505050507f5dbaa701a7acef513f72a61799f7e50f4653f462b9f780d88d1b9bec89de2168600260009054906101000a90046001600160a01b03166001600160a01b0316638e499bcf6040518163ffffffff1660e01b815260040160206040518083038186803b1580156107bd57600080fd5b505afa1580156107d1573d6000803e3d6000fd5b505050506040513d601f19601f820116820180604052508101906107f59190611eb3565b604080519182526001600160a01b03841660208301520160405180910390a150565b6008818154811061082757600080fd5b600091825260209091200154905081565b6007546000906001600160a01b0316331461086357634e487b7160e01b600052600160045260246000fd5b60015460405163c34ca64160e01b8152600481018690526000916001600160a01b03169063c34ca6419060240160206040518083038186803b1580156108a857600080fd5b505afa1580156108bc573d6000803e3d6000fd5b505050506040513d601f19601f820116820180604052508101906108e09190611eb3565b60015460405163c67be82d60e01b81529192506001600160a01b03169063c67be82d9061091590849088908890600401612080565b60206040518083038186803b15801561092d57600080fd5b505afa158015610941573d6000803e3d6000fd5b505050506040513d601f19601f820116820180604052508101906109659190611eb3565b600654146109b55760405162461bcd60e51b815260206004820152601e60248201527f7370656369666965642073756274726565206973206e6f7420656d707479000060448201526064016104aa565b600154600880546001600160a01b039092169163c67be82d91906000906109ec57634e487b7160e01b600052603260045260246000fd5b906000526020600020015486866040518463ffffffff1660e01b8152600401610a1793929190612080565b60206040518083038186803b158015610a2f57600080fd5b505afa158015610a43573d6000803e3d6000fd5b505050506040513d601f19601f82011682018060405250810190610a679190611eb3565b600655610a746000611a4d565b50600a54610a83906002612158565b600954610a909190612226565b60095550506006545b9392505050565b60008360e0015111610ae85760405162461bcd60e51b8152602060048201526011602482015270696e76616c696420746f6b656e5479706560781b60448201526064016104aa565b6101008301516000908152600f6020526040902054610b415760405162461bcd60e51b81526020600482015260156024820152741d1e149bdbdd08191bd95cc81b9bdd08195e1a5cdd605a1b60448201526064016104aa565b60408051600880825261012082019092526000916020820161010080368337019050509050836000015181600081518110610b8c57634e487b7160e01b600052603260045260246000fd5b602002602001018181525050836020015181600181518110610bbe57634e487b7160e01b600052603260045260246000fd5b602002602001018181525050836040015181600281518110610bf057634e487b7160e01b600052603260045260246000fd5b602002602001018181525050836060015181600381518110610c2257634e487b7160e01b600052603260045260246000fd5b602002602001018181525050836080015181600481518110610c5457634e487b7160e01b600052603260045260246000fd5b6020026020010181815250508360a0015181600581518110610c8657634e487b7160e01b600052603260045260246000fd5b6020026020010181815250508360c0015181600681518110610cb857634e487b7160e01b600052603260045260246000fd5b6020026020010181815250508360e0015181600781518110610cea57634e487b7160e01b600052603260045260246000fd5b602090810291909101015260015460405163bd66ec4960e01b81526000916001600160a01b03169063bd66ec4990610d26908590600401611f7f565b60206040518083038186803b158015610d3e57600080fd5b505afa158015610d52573d6000803e3d6000fd5b505050506040513d601f19601f82011682018060405250810190610d769190611eb3565b60015461012087015161014088015160405163c67be82d60e01b81529394506001600160a01b039092169263c67be82d92610db8928692909190600401612080565b60206040518083038186803b158015610dd057600080fd5b505afa158015610de4573d6000803e3d6000fd5b505050506040513d601f19601f82011682018060405250810190610e089190611eb3565b85610100015114610e815760405162461bcd60e51b815260206004820152603960248201527f7472616e73616374696f6e20646f6573206e6f7420657869737420696e20737060448201527f65636966696564207472616e73616374696f6e7320726f6f740000000000000060648201526084016104aa565b6040805160028082526060820183526000926020830190803683370190505090508560a0015181600081518110610ec857634e487b7160e01b600052603260045260246000fd5b6020026020010181815250506000859050806001600160a01b031682600181518110610f0457634e487b7160e01b600052603260045260246000fd5b602090810291909101015260408051600380825260808201909252600091816020016020820280368337019050509050876000015181600081518110610f5a57634e487b7160e01b600052603260045260246000fd5b602002602001018181525050876020015181600181518110610f8c57634e487b7160e01b600052603260045260246000fd5b602090810291909101015260015460405163bd66ec4960e01b81526001600160a01b039091169063bd66ec4990610fc7908690600401611f7f565b60206040518083038186803b158015610fdf57600080fd5b505afa158015610ff3573d6000803e3d6000fd5b505050506040513d601f19601f820116820180604052508101906110179190611eb3565b8160028151811061103857634e487b7160e01b600052603260045260246000fd5b602090810291909101015260055460405163330deb9f60e01b81526001600160a01b039091169063330deb9f906110759084908a90600401611f92565b60206040518083038186803b15801561108d57600080fd5b505afa1580156110a1573d6000803e3d6000fd5b505050506040513d601f19601f820116820180604052508101906110c59190611d53565b6111115760405162461bcd60e51b815260206004820152601c60248201527f6564647361207369676e6174757265206973206e6f742076616c69640000000060448201526064016104aa565b8760e001516001141561115d5760c08801516040516001600160a01b0389169180156108fc02916000818181858888f19350505050158015611157573d6000803e3d6000fd5b506112bc565b60025460e0890151604051634d05d17560e11b815260048101919091526000916001600160a01b031690639a0ba2ea9060240160206040518083038186803b1580156111a857600080fd5b505afa1580156111bc573d6000803e3d6000fd5b505050506040513d601f19601f820116820180604052508101906111e09190611c60565b600380546001600160a01b0319166001600160a01b0383811691821790925560c08c015160405163a9059cbb60e01b8152928c166004840152602483015291925063a9059cbb90604401602060405180830381600087803b15801561124457600080fd5b505af1158015611258573d6000803e3d6000fd5b505050506040513d601f19601f8201168201806040525081019061127c9190611d53565b6112ba5760405162461bcd60e51b815260206004820152600f60248201526e1d1c985b9cd9995c8819985a5b1959608a1b60448201526064016104aa565b505b7fe3518bd287e942fafe7d1cc3ea19e17d60bb304f57764b8bda57e46602fbf8f088886040516112ed929190611fc0565b60405180910390a15050505050505050565b806113d7576007546001600160a01b0316331461136e5760405162461bcd60e51b815260206004820152602760248201527f746f6b656e54797065203020697320726573657276656420666f7220636f6f726044820152663234b730ba37b960c91b60648201526084016104aa565b8115801561137a575034155b6113d25760405162461bcd60e51b8152602060048201526024808201527f746f6b656e54797065203020646f6573206e6f742068617665207265616c2076604482015263616c756560e01b60648201526084016104aa565b611624565b8060011415611457576000341180156113f05750813410155b6113d25760405162461bcd60e51b815260206004820152603260248201527f6d73672e76616c7565206d757374206174206c6561737420657175616c2073746044820152716174656420616d6f756e7420696e2077656960701b60648201526084016104aa565b600181111561162457600082116114bc5760405162461bcd60e51b8152602060048201526024808201527f746f6b656e206465706f736974206d75737420626520677265617465722074686044820152630616e20360e41b60648201526084016104aa565b600254604051634d05d17560e11b8152600481018390526000916001600160a01b031690639a0ba2ea9060240160206040518083038186803b15801561150157600080fd5b505afa158015611515573d6000803e3d6000fd5b505050506040513d601f19601f820116820180604052508101906115399190611c60565b600380546001600160a01b0319166001600160a01b0383169081179091556040516323b872dd60e01b815233600482015230602482015260448101869052919250906323b872dd90606401602060405180830381600087803b15801561159e57600080fd5b505af11580156115b2573d6000803e3d6000fd5b505050506040513d601f19601f820116820180604052508101906115d69190611d53565b6116225760405162461bcd60e51b815260206004820152601b60248201527f746f6b656e207472616e73666572206e6f7420617070726f766564000000000060448201526064016104aa565b505b60408051600580825260c082019092526000916020820160a0803683375050855182519293509183915060009061166b57634e487b7160e01b600052603260045260246000fd5b602090810291909101015283600160200201518160018151811061169f57634e487b7160e01b600052603260045260246000fd5b60200260200101818152505082816002815181106116cd57634e487b7160e01b600052603260045260246000fd5b6020026020010181815250506000816003815181106116fc57634e487b7160e01b600052603260045260246000fd5b602002602001018181525050818160048151811061172a57634e487b7160e01b600052603260045260246000fd5b602090810291909101015260015460405163bd66ec4960e01b81526000916001600160a01b03169063bd66ec4990611766908590600401611f7f565b60206040518083038186803b15801561177e57600080fd5b505afa158015611792573d6000803e3d6000fd5b505050506040513d601f19601f820116820180604052508101906117b69190611eb3565b600880546001810182556000919091527ff3f7a9fe364faab93b216da50a3214154f22a0a2b415b23a84c8169e8b636ee3018190556040519091507f595b7e310cd1b7e94b72db62a3257c5fa242cbca10740eb40ae49044f5dcff1f9061182290879087908790611f43565b60405180910390a16009805490600061183a8361223d565b90915550506009546000905b611851600282612258565b611a3457604080516002808252606082018352600092602083019080368337505060088054929350916118879150600290612226565b815481106118a557634e487b7160e01b600052603260045260246000fd5b9060005260206000200154816000815181106118d157634e487b7160e01b600052603260045260246000fd5b6020908102919091010152600880546118ec90600190612226565b8154811061190a57634e487b7160e01b600052603260045260246000fd5b90600052602060002001548160018151811061193657634e487b7160e01b600052603260045260246000fd5b602090810291909101015260015460405163bd66ec4960e01b81526001600160a01b039091169063bd66ec4990611971908490600401611f7f565b60206040518083038186803b15801561198957600080fd5b505afa15801561199d573d6000803e3d6000fd5b505050506040513d601f19601f820116820180604052508101906119c19190611eb3565b600880546119d190600290612226565b815481106119ef57634e487b7160e01b600052603260045260246000fd5b600091825260209091200155600854611a1390611a0e90600190612226565b611a4d565b50611a1f6002836120fe565b915082611a2b8161223d565b93505050611846565b600a54821115611a4457600a8290555b50505050505050565b6008546060908210611a9a5760405162461bcd60e51b8152602060048201526016602482015275696e646578206973206f7574206f6620626f756e647360501b60448201526064016104aa565b815b600854611aab90600190612226565b811015611b27576008611abf8260016120e6565b81548110611add57634e487b7160e01b600052603260045260246000fd5b906000526020600020015460088281548110611b0957634e487b7160e01b600052603260045260246000fd5b60009182526020909120015580611b1f8161223d565b915050611a9c565b506008805480611b4757634e487b7160e01b600052603160045260246000fd5b600190038181906000526020600020016000905590556008805480602002602001604051908101604052809291908181526020018280548015611ba957602002820191906000526020600020905b815481526020019060010190808311611b95575b505050505090505b919050565b8035611bb1816122ae565b600082601f830112611bd1578081fd5b8135602067ffffffffffffffff821115611bed57611bed612298565b8160051b611bfc8282016120b5565b838152828101908684018388018501891015611c16578687fd5b8693505b85841015611c38578035835260019390930192918401918401611c1a565b50979650505050505050565b600060208284031215611c55578081fd5b8135610a99816122ae565b600060208284031215611c71578081fd5b8151610a99816122ae565b600080600060808486031215611c90578182fd5b84601f850112611c9e578182fd5b611ca860406120b5565b80856040870188811115611cba578586fd5b855b6002811015611cdb578235855260209485019490920191600101611cbc565b509198913597505060609590950135949350505050565b60008060408385031215611d04578182fd5b823567ffffffffffffffff80821115611d1b578384fd5b611d2786838701611bc1565b93506020850135915080821115611d3c578283fd5b50611d4985828601611bc1565b9150509250929050565b600060208284031215611d64578081fd5b81518015158114610a99578182fd5b600080600060608486031215611d87578283fd5b833567ffffffffffffffff80821115611d9e578485fd5b8186019150610160808389031215611db4578586fd5b611dbd816120b5565b9050823581526020830135602082015260408301356040820152606083013560608201526080830135608082015260a083013560a082015260c083013560c082015260e083013560e08201526101008084013581830152506101208084013583811115611e28578788fd5b611e348a828701611bc1565b8284015250506101408084013583811115611e4d578788fd5b611e598a828701611bc1565b82840152505080955050611e6f60208701611bb6565b93506040860135915080821115611e84578283fd5b50611e9186828701611bc1565b9150509250925092565b600060208284031215611eac578081fd5b5035919050565b600060208284031215611ec4578081fd5b5051919050565b600080600060608486031215611edf578283fd5b83359250602084013567ffffffffffffffff80821115611efd578384fd5b611e6f87838801611bc1565b6000815180845260208085019450808401835b83811015611f3857815187529582019590820190600101611f1c565b509495945050505050565b60808101818560005b6002811015611f6b578151835260209283019290910190600101611f4c565b505050604082019390935260600152919050565b600060208252610a996020830184611f09565b600060408252611fa56040830185611f09565b8281036020840152611fb78185611f09565b95945050505050565b600060408252835160408301526020840151606083015260408401516080830152606084015160a0830152608084015160c083015260a084015160e083015260c0840151610100818185015260e08601519150610120828186015281870151925061014091508282860152808701519250506101608081860152506120496101a0850183611f09565b90860151848203603f19016101808601529091506120678282611f09565b92505050610a9960208301846001600160a01b03169052565b6000848252606060208301526120996060830185611f09565b82810360408401526120ab8185611f09565b9695505050505050565b604051601f8201601f1916810167ffffffffffffffff811182821017156120de576120de612298565b604052919050565b600082198211156120f9576120f961226c565b500190565b60008261210d5761210d612282565b500490565b80825b6001808611612124575061214f565b8187048211156121365761213661226c565b8086161561214357918102915b9490941c938002612115565b94509492505050565b6000610a99600019848460008261217157506001610a99565b8161217e57506000610a99565b8160018114612194576002811461219e576121cb565b6001915050610a99565b60ff8411156121af576121af61226c565b6001841b9150848211156121c5576121c561226c565b50610a99565b5060208310610133831016604e8410600b84101617156121fe575081810a838111156121f9576121f961226c565b610a99565b61220b8484846001612112565b80860482111561221d5761221d61226c565b02949350505050565b6000828210156122385761223861226c565b500390565b60006000198214156122515761225161226c565b5060010190565b60008261226757612267612282565b500690565b634e487b7160e01b600052601160045260246000fd5b634e487b7160e01b600052601260045260246000fd5b634e487b7160e01b600052604160045260246000fd5b6001600160a01b03811681146122c357600080fd5b5056fea26469706673582212202bc80282ea6b077f76c3dfbdede83da578a0793034da4def3e6d6075861847e564736f6c63430008030033608060405234801561001057600080fd5b5061317e806100206000396000f3fe608060405234801561001057600080fd5b506004361061002b5760003560e01c8063330deb9f14610030575b600080fd5b61004361003e366004612fd3565b610057565b604051901515815260200160405180910390f35b60008061006261009b565b9050835181602001511461007557600080fd5b6000610081858561055b565b9050600061008f8284610a34565b93505050505b92915050565b6100a3612c56565b620400008152600360208201526100d97f0f60c8fe0414cb9379b2d39267945f6bd60d06a05216231b26a9fcf88ddbfebe610ade565b60408201526101287f07bcbfe31c69e1d5836f6fbf7a07de42e2a45e81f6fbe4f8ab523999f7a097177f087871b546f34c66bdfd334b067fd155f93eacfd869b1dc8f7c0fc948b1b9635610b19565b6060820151526101787f23d144044c98eaf91af6dd5c73c353ceb9b2db7e8b029bbb19e55618eaa6cd0d7f0cfe9752d74a16fac9933abc870c744704534d2b2b0cfe461a11c0b057d2aba0610b19565b6060820151602001526101cb7f0eb56bc19f127e2548f797127692721e7f60219786bcb4691c6bfd86bc1c68b27f15ad82fcda20ee23163c86b5d92cfe5cbc92ae81b8c66d1238f5ff946b675454610b19565b60608201516040015261021e7f2555aa9ea63f7d17cf97cfc5db80d9a46a2be997f06f962b112b62761beddaf97f2b761e912804cbec078519b237dd1914ec1ab4629d483711372fdba0e3f0f84e610b19565b60608281015101526102707f1a641bebe4d3f4141a99356d5dd04d5d3d48c65a0eda41809a859d3d1cfb85337f242585511c58e37c7b35c0300f4e1cf6c7ca37222a167f7cb9b6292c69f08a58610b19565b6060820151608001526102c37f0867eafc0271a302d63c4da6abf27c0920261ebbb3b7919ca0663901f40a3c5d7f1279f2ead70298a78c7901ada46f024c92fca8cc628300132401898e556ad991610b19565b606082015160a001526103167f1553f709b636202d0e66f9ee41906953dd6d00d349a1ecbaeb18e2e443357b5f7f11e0cce81ea13ee6525b68cf8fe3ded5d4400326e58f89b48a9f6c78f42a3127610b19565b6080820151526103667f0f1829ab78e05daf260f0f7da50faf376b088be9484ae70e8c8d125ac17f0f747f11c36f82a0190b96e425d2521a9064e9f497bc71a157778d070f70c441ed0530610b19565b60a0820151526103b67f26b1f439bbaead8e73cbf0b7403ec6d30a6f8f68c5cc4987ec53d754b4c7fcac7f1bc55dc39b2864a5dcf98b3f8c1a9853e3e18f4e74d0046437025d178ae5c961610b19565b60a0820151602001526104097f1f1254b3f5904e8c7888a0e2bc32a93fe892f9ff94da008863e62e832d4f01837f01d91bdc0759d8c77e3b30b2c8a96347111fd5c067589d0d92093788aa616716610b19565b60a08201516040015261045c7f1d45de09618db85c39d61ca19a9d880dd103da90daedbbf25b6cc7754e1e0f0d7f05d4210a5aef2f669894fef836c59983f4284db56092ee55215dca5501b712d5610b19565b60a08201516060015261046f6005610ade565b60c08201515261047f6007610ade565b60c082015160200152610492600a610ade565b60c08201516002602002018190525061055360405180604001604052807f260e01b251f6f1c7e7ff4e580791dee8ea51d87a358e038b4efe30fac09383c181526020017f0118c4d5b837bcc2bc89b5b398b5974e9f5944073b32078b7e231fec938883b081525060405180604001604052807f04fc6369f7110fe3d25156c1bb9a72859cf2a04641f99ba4ee413c80da6a5fe481526020017f22febda3c0c0632a56475b4214e5615e11e6dd3f96e6cea2854a87d4dacc5e55815250610b44565b60e082015290565b610563612cde565b602182511461057157600080fd5b825167ffffffffffffffff81111561059957634e487b7160e01b600052604160045260246000fd5b6040519080825280602002602001820160405280156105c2578160200160208202803683370190505b50815260005b835181101561063a578381815181106105f157634e487b7160e01b600052603260045260246000fd5b60200260200101518260000151828151811061061d57634e487b7160e01b600052603260045260246000fd5b602090810291909101015280610632816130c1565b9150506105c8565b506000805b60048110156106f4576106ac84838151811061066b57634e487b7160e01b600052603260045260246000fd5b6020026020010151858460016106819190613034565b8151811061069f57634e487b7160e01b600052603260045260246000fd5b6020026020010151610b4c565b836020015182600481106106d057634e487b7160e01b600052603260045260246000fd5b60200201526106e0600283613034565b9150806106ec816130c1565b91505061063f565b5061072e83828151811061071857634e487b7160e01b600052603260045260246000fd5b6020026020010151848360016106819190613034565b604083015261073e600282613034565b905060005b60048110156107b75761076f84838151811061066b57634e487b7160e01b600052603260045260246000fd5b8360600151826004811061079357634e487b7160e01b600052603260045260246000fd5b60200201526107a3600283613034565b9150806107af816130c1565b915050610743565b5060005b600481101561083c576107f48483815181106107e757634e487b7160e01b600052603260045260246000fd5b6020026020010151610ade565b8360800151826004811061081857634e487b7160e01b600052603260045260246000fd5b6020020152610828600183613034565b915080610834816130c1565b9150506107bb565b5060005b60018110156108b45761086c8483815181106107e757634e487b7160e01b600052603260045260246000fd5b8360a00151826001811061089057634e487b7160e01b600052603260045260246000fd5b60200201526108a0600183613034565b9150806108ac816130c1565b915050610840565b506108d88382815181106107e757634e487b7160e01b600052603260045260246000fd5b60c08301526108e8600182613034565b905061090d8382815181106107e757634e487b7160e01b600052603260045260246000fd5b60e083015261091d600182613034565b90506109428382815181106107e757634e487b7160e01b600052603260045260246000fd5b610100830152610953600182613034565b905060005b60038110156109cd576109848483815181106107e757634e487b7160e01b600052603260045260246000fd5b83610120015182600381106109a957634e487b7160e01b600052603260045260246000fd5b60200201526109b9600183613034565b9150806109c5816130c1565b915050610958565b506109f183828151811061071857634e487b7160e01b600052603260045260246000fd5b610140830152610a02600282613034565b9050610a2783828151811061071857634e487b7160e01b600052603260045260246000fd5b6101608301525092915050565b6000610aab6040805161010081018252600060e082018181528252825160208082018552828252808401919091528351808201855282815283850152835180820185528281526060840152835180820185528281526080840152835190810190935282529060a08201908152602001606081525090565b6000610ab8828686610c3a565b905080610aca57600092505050610095565b610ad5828686610ffa565b95945050505050565b6040805160208101909152600081526000805160206131298339815191528210610b0757600080fd5b50604080516020810190915290815290565b60408051808201909152600080825260208201525b5060408051808201909152918252602082015290565b610b2e612de6565b604080518082019091526000808252602082015282158015610b6c575081155b15610b8d576040518060400160405280848152602001838152509050610095565b6000805160206131098339815191528310610ba757600080fd5b6000805160206131098339815191528210610bc157600080fd5b60006000805160206131098339815191528384099050600060008051602061310983398151915285860990506000805160206131098339815191528582099050600080516020613109833981519152600382089050808214610c2257600080fd5b50506040805180820190915292835250602082015290565b602081015182515160009114610c4f57600080fd5b600182602001511015610c6157600080fd5b60408051606081018252600080825260208201819052918101829052905b8360200151811015610cdb57610cc985600001518281518110610cb257634e487b7160e01b600052603260045260246000fd5b60200260200101518361154a90919063ffffffff16565b80610cd3816130c1565b915050610c7f565b5060005b6004811015610d2d57610d1b85602001518260048110610d0f57634e487b7160e01b600052603260045260246000fd5b602002015183906115d8565b80610d25816130c1565b915050610cdf565b50610d37816115f8565b6020860152610d45816115f8565b604080870191909152840151610d5c9082906115d8565b610d65816115f8565b855260005b6004811015610dac57610d9a85606001518260048110610d0f57634e487b7160e01b600052603260045260246000fd5b80610da4816130c1565b915050610d6a565b50610db6816115f8565b60a0860152602083015160009067ffffffffffffffff811115610de957634e487b7160e01b600052604160045260246000fd5b604051908082528060200260200182016040528015610e12578160200160208202803683370190505b50905060005b8151811015610e5f5780828281518110610e4257634e487b7160e01b600052603260045260246000fd5b602090810291909101015280610e57816130c1565b915050610e18565b50610e7881856000015186604001518960a0015161169e565b60c08701526000610e8a878787611c5a565b905080610e9d5760009350505050610ff3565b60005b6004811015610eee57610edc87608001518260048110610ed057634e487b7160e01b600052603260045260246000fd5b60200201518590611eed565b80610ee6816130c1565b915050610ea0565b5060005b6001811015610f3457610f228760a001518260018110610ed057634e487b7160e01b600052603260045260246000fd5b80610f2c816130c1565b915050610ef2565b5060005b6003811015610f7b57610f698761012001518260038110610ed057634e487b7160e01b600052603260045260246000fd5b80610f73816130c1565b915050610f38565b5060e0860151610f8c908490611eed565b610100860151610f9d908490611eed565b60c0860151610fad908490611eed565b610fb6836115f8565b6060880152610140860151610fcc9084906115d8565b610160860151610fdd9084906115d8565b610fe6836115f8565b6080880152506001925050505b9392505050565b600080611008858585611efb565b835160a087015191925060009161101e91612358565b9050600061104e604080518082018252600080825260209182015281518083019092526001825260029082015290565b9050600061105c6001610ade565b905060006110b3886060015160006004811061108857634e487b7160e01b600052603260045260246000fd5b6020020151604080518082019091526000808252602080830191825283518352929092015190915290565b905060006110c16001610ade565b905060015b600481101561112a576110d982876123d7565b61110c828b60600151836004811061110157634e487b7160e01b600052603260045260246000fd5b6020020151906123f1565b94506111188386612410565b80611122816130c1565b9150506110c6565b5060608a015161113b9084906123d7565b6111458287612410565b60005b60048110156111a75760608b01516111619085906123d7565b611189848b60200151836004811061110157634e487b7160e01b600052603260045260246000fd5b94506111958386612410565b8061119f816130c1565b915050611148565b5060005b6111b760016004613093565b8110156112145760608b01516111ce9085906123d7565b6111f6848a60a00151836004811061110157634e487b7160e01b600052603260045260246000fd5b94506112028386612410565b8061120c816130c1565b9150506111ab565b5060608a01516112259084906123d7565b60608a01516112359084906123d7565b8251815260808a01516112499082906123d7565b61127e818a60200151600160046112609190613093565b6004811061110157634e487b7160e01b600052603260045260246000fd5b935061128a8285612410565b6112946001610ade565b925060006112b68a60e001516040805160208101909152600081529051815290565b90506112cf8b60600151856123d790919063ffffffff16565b6101008a01515182526112e282856123d7565b6112ec8183612420565b60005b600481101561135f5760608c01516113089086906123d7565b6113398b60800151826004811061132f57634e487b7160e01b600052603260045260246000fd5b6020020151518452565b61134383866123d7565b61134d8284612420565b80611357816130c1565b9150506112ef565b5060005b60038110156113ca5760608c015161137c9086906123d7565b6113a48b6101200151826003811061132f57634e487b7160e01b600052603260045260246000fd5b6113ae83866123d7565b6113b88284612420565b806113c2816130c1565b915050611363565b5060608b01516113db9085906123d7565b60c08a01515182526113ed82856123d7565b60808b01516113fd9083906123d7565b6114078183612420565b60608b01516114179085906123d7565b60a08a01515151825261142a82856123d7565b60808b015161143a9083906123d7565b6114448183612420565b61148461147d82611477604080518082018252600080825260209182015281518083019092526001825260029082015290565b906123f1565b849061243a565b60a08b01516101408b015184916114a59161149e916123f1565b8290612410565b60a08c015151835260408a01516114bd9084906123d7565b60808c01516114cd9084906123d7565b6101608b01516114e19061149e90856123f1565b60006114ff8d608001518d61016001516123f190919063ffffffff16565b90506115198c61014001518261241090919063ffffffff16565b61152281612445565b6115398261152e612485565b838e60e00151612545565b9d9c50505050505050505050505050565b81516020808401516040516000928101929092526024820183905260448201526064810183905260840160408051808303601f1901815291815281516020928301208552848201519051600160e01b928101929092526024820183905260448201526064810183905260840160408051601f1981840301815291905280516020918201209301929092525050565b6115e682826000015161154a565b6115f482826020015161154a565b5050565b60408051602081019091526000815281516020808401516040808601519051600160e11b938101939093526024830193909352604482015260e09190911b6001600160e01b0319166064820152600090606801604051602081830303815290604052805190602001209050600183604001818151611676919061304c565b63ffffffff1690525060408051602081019091526001600160fd1b0391909116815292915050565b606060006116ac6001610ade565b905060006116ba6000610ade565b905060006116c787610ade565b905060006116d58689612358565b90506116e18185612688565b80516116ec57600080fd5b6000895167ffffffffffffffff81111561171657634e487b7160e01b600052604160045260246000fd5b60405190808252806020026020018201604052801561175657816020015b6040805160208101909152600081528152602001906001900390816117345790505b50905060008a5167ffffffffffffffff81111561178357634e487b7160e01b600052604160045260246000fd5b6040519080825280602002602001820160405280156117c357816020015b6040805160208101909152600081528152602001906001900390816117a15790505b50905060005b8b518110156119165761180c8c82815181106117f557634e487b7160e01b600052603260045260246000fd5b60200260200101518b61235890919063ffffffff16565b95506118488484838151811061183257634e487b7160e01b600052603260045260246000fd5b602002602001015161241b90919063ffffffff16565b6118828684838151811061186c57634e487b7160e01b600052603260045260246000fd5b60200260200101516123d790919063ffffffff16565b6118a68983838151811061183257634e487b7160e01b600052603260045260246000fd5b6118e0868383815181106118ca57634e487b7160e01b600052603260045260246000fd5b602002602001015161268890919063ffffffff16565b6119048583838151811061186c57634e487b7160e01b600052603260045260246000fd5b8061190e816130c1565b9150506117c9565b5060008b5167ffffffffffffffff81111561194157634e487b7160e01b600052604160045260246000fd5b60405190808252806020026020018201604052801561198157816020015b60408051602081019091526000815281526020019060019003908161195f5790505b5090506119b26119916001610ade565b8260008151811061183257634e487b7160e01b600052603260045260246000fd5b60015b8251811015611a7a57611a13836119cd600184613093565b815181106119eb57634e487b7160e01b600052603260045260246000fd5b602002602001015183838151811061183257634e487b7160e01b600052603260045260246000fd5b611a6882611a22600184613093565b81518110611a4057634e487b7160e01b600052603260045260246000fd5b602002602001015183838151811061186c57634e487b7160e01b600052603260045260246000fd5b80611a72816130c1565b9150506119b5565b50611ac28160018351611a8d9190613093565b81518110611aab57634e487b7160e01b600052603260045260246000fd5b60200260200101518661241b90919063ffffffff16565b611b098260018451611ad49190613093565b81518110611af257634e487b7160e01b600052603260045260246000fd5b6020026020010151866123d790919063ffffffff16565b611b12856126ba565b9450600060018351611b249190613093565b90505b85518752611b65828281518110611b4e57634e487b7160e01b600052603260045260246000fd5b6020026020010151886123d790919063ffffffff16565b611b9f838281518110611b8857634e487b7160e01b600052603260045260246000fd5b6020026020010151876123d790919063ffffffff16565b611bc38784838151811061183257634e487b7160e01b600052603260045260246000fd5b80611bcd57611bdf565b80611bd7816130aa565b915050611b27565b5060005b8351811015611c4957611c37838281518110611c0f57634e487b7160e01b600052603260045260246000fd5b602002602001015185838151811061186c57634e487b7160e01b600052603260045260246000fd5b80611c41816130c1565b915050611be3565b50919b9a5050505050505050505050565b600080611c6f83600001518660a001516126f6565b8051909150611c7d57600080fd5b60e0840151611c8d9082906123d7565b6000611c996001610ade565b90506000611cbc8661010001516040805160208101909152600081529051815290565b90506000611cca6000610ade565b905060005b875151811015611d6457611d178960c001518281518110611d0057634e487b7160e01b600052603260045260246000fd5b60200260200101518361241b90919063ffffffff16565b611d48611d41896000015183815181106107e757634e487b7160e01b600052603260045260246000fd5b83906123d7565b611d528383612420565b80611d5c816130c1565b915050611ccf565b508751611d729084906123d7565b60c08701516040805160208101909152600080825291518152905b6003811015611e2d57611dbe896101200151826003811061132f57634e487b7160e01b600052603260045260246000fd5b60208a0151611dce9084906123d7565b60408a0151611dde908490612420565b611e1189608001518260048110611e0557634e487b7160e01b600052603260045260246000fd5b60200201518490612420565b611e1b82846123d7565b80611e25816130c1565b915050611d8d565b5060408901515182526080880151611e7590611e4b60016004613093565b60048110611e6957634e487b7160e01b600052603260045260246000fd5b60200201518390612420565b611e7f81836123d7565b611e8981856123d7565b611e938382612688565b8851611ea09085906123d7565b611ec88960c00151600081518110611d0057634e487b7160e01b600052603260045260246000fd5b611ed282856123d7565b611edc8383612688565b505051915190911495945050505050565b6115f482826000015161154a565b6040805180820190915260008082526020820152600060016004611f20816002613034565b611f2a9190613034565b611f349190613093565b9050611f6a836060015160046001611f4c9190613034565b6006811061108857634e487b7160e01b600052603260045260246000fd5b91506000611f9a604080518082018252600080825260209182015281518083019092526001825260029082015290565b90506000611fa86000610ade565b905060005b60048110156120245761200687608001518260048110611fdd57634e487b7160e01b600052603260045260246000fd5b60200201518760600151836006811061110157634e487b7160e01b600052603260045260246000fd5b92506120128584612410565b8061201c816130c1565b915050611fad565b5060808601805151518252516020015161203f9082906123d7565b60608501516120519082906004611101565b915061205d8483612410565b60a086015151608086015161207491906000611101565b91506120808483612410565b60a087015160408051602080820190925260008152915182528801516120a79082906123d7565b6080870151516120b8908290612420565b60408801516120c8908290612420565b60005b600381101561217d5760a089015151835261210f8760c00151826003811061210357634e487b7160e01b600052603260045260246000fd5b602002015184906123d7565b602089015161211f9084906123d7565b604089015161212f908490612420565b608088015161216190612143836001613034565b60048110611e0557634e487b7160e01b600052603260045260246000fd5b61216b82846123d7565b80612175816130c1565b9150506120cb565b50875161218b9082906123d7565b6121b38860c00151600081518110611d0057634e487b7160e01b600052603260045260246000fd5b87516121c09083906123d7565b87516121cd9083906123d7565b6121d78183612420565b60608801516000906121e99086612358565b90506122028960800151826123d790919063ffffffff16565b600061220e6001610ade565b905060005b60038110156122b75760208b01515185526122588a6101200151826003811061224c57634e487b7160e01b600052603260045260246000fd5b602002015186906123d7565b60408b0151612268908690612420565b61229b8a60800151826004811061228f57634e487b7160e01b600052603260045260246000fd5b60200201518690612420565b6122a582866123d7565b806122af816130c1565b915050612213565b5060208a01516122c89082906123d7565b60c08901516122d89082906123d7565b89516122e59082906123d7565b60408901516122f490846123f1565b9450612317612310828a60a00151600160046112609190613093565b869061243a565b6123218786612410565b60608a0151612331908890612725565b604089015161234b9061234490846123f1565b8890612410565b5050505050509392505050565b604080516020808201835260008252825160c08101845281815280820182905292830152835160608301526080820183905260008051602061312983398151915260a0830152906123a7612e06565b600060208260c08560055afa9050806123bf57600080fd5b50604080516020810190915290518152949350505050565b600080516020613129833981519152815183510990915250565b604080518082019091526000808252602082015261009583838361272c565b6115f482828461276e565b519052565b600080516020613129833981519152815183510890915250565b6115f4828284612806565b602081015161245f5780511561245a57600080fd5b612482565b602081015161247c90600080516020613109833981519152613093565b60208201525b50565b61248d612de6565b50604080516080810182527f198e9393920d483a7260bfb731fb5d25f1aa493335a9e71297e485b7aef312c28183019081527f1800deef121f1e76426a00665e5c4479674322d4f75edadd46debd5cd992f6ed6060830152815281518083019092527f090689d0585ff075ec9e99ad690c3395bc4b313370b38ef355acdadcd122975b82527f12c85ea5db8c6deb4aab71808dcb408fe3d1e7690c43d37b4ce6cc0166fa7daa60208381019190915281019190915290565b60408051600280825260608201909252600091829190816020015b60408051808201909152600080825260208201528152602001906001900390816125605750506040805160028082526060820190925291925060009190602082015b6125aa612de6565b8152602001906001900390816125a257905050905086826000815181106125e157634e487b7160e01b600052603260045260246000fd5b6020026020010181905250848260018151811061260e57634e487b7160e01b600052603260045260246000fd5b6020026020010181905250858160008151811061263b57634e487b7160e01b600052603260045260246000fd5b6020026020010181905250838160018151811061266857634e487b7160e01b600052603260045260246000fd5b602002602001018190525061267d82826128b0565b979650505050505050565b60008051602061312983398151915281516126b190600080516020613129833981519152613093565b83510890915250565b60408051602081019091526000815281516126d457600080fd5b610095826126f16002600080516020613129833981519152613093565b612358565b60408051602081019091526000815261270f8284612358565b905061009561271e6001610ade565b8290612688565b6115f48282845b612734612e24565b835181526020840151816001602002015282518160026020020152600060408360608460075afa90508061276757600080fd5b5050505050565b815115801561277f57506020820151155b15612797578251815260208084015190820152612801565b82511580156127a857506020830151155b156127c0578151815260208083015190820152612801565b6127c8612e42565b8351815260208085015181830152835160408301528301518160035b6020020152600060408360808460065afa90508061276757600080fd5b505050565b815115801561281757506020820151155b1561282f578251815260208084015190820152612801565b825115801561284057506020830151155b156128705781518152602082015161286690600080516020613109833981519152613093565b6020820152612801565b612878612e42565b8351815260208085015181830152835160408301528301516128a890600080516020613109833981519152613093565b8160036127e4565b600081518351146128c057600080fd5b825160006128cf826006613074565b905060008167ffffffffffffffff8111156128fa57634e487b7160e01b600052604160045260246000fd5b604051908082528060200260200182016040528015612923578160200160208202803683370190505b50905060005b83811015612c225786818151811061295157634e487b7160e01b600052603260045260246000fd5b6020026020010151600001518282600661296b9190613074565b612976906000613034565b8151811061299457634e487b7160e01b600052603260045260246000fd5b6020026020010181815250508681815181106129c057634e487b7160e01b600052603260045260246000fd5b602002602001015160200151828260066129da9190613074565b6129e5906001613034565b81518110612a0357634e487b7160e01b600052603260045260246000fd5b602002602001018181525050858181518110612a2f57634e487b7160e01b600052603260045260246000fd5b6020908102919091010151515182612a48836006613074565b612a53906002613034565b81518110612a7157634e487b7160e01b600052603260045260246000fd5b602002602001018181525050858181518110612a9d57634e487b7160e01b600052603260045260246000fd5b60209081029190910181015151015182612ab8836006613074565b612ac3906003613034565b81518110612ae157634e487b7160e01b600052603260045260246000fd5b602002602001018181525050858181518110612b0d57634e487b7160e01b600052603260045260246000fd5b602002602001015160200151600060028110612b3957634e487b7160e01b600052603260045260246000fd5b602002015182612b4a836006613074565b612b55906004613034565b81518110612b7357634e487b7160e01b600052603260045260246000fd5b602002602001018181525050858181518110612b9f57634e487b7160e01b600052603260045260246000fd5b602002602001015160200151600160028110612bcb57634e487b7160e01b600052603260045260246000fd5b602002015182612bdc836006613074565b612be7906005613034565b81518110612c0557634e487b7160e01b600052603260045260246000fd5b602090810291909101015280612c1a816130c1565b915050612929565b50612c2b612e06565b6000602082602086026020860160085afa905080612c4857600080fd5b505115159695505050505050565b6040518061010001604052806000815260200160008152602001612c866040518060200160405280600081525090565b8152602001612c93612e60565b815260408051606081018252600060208083018281528385019290925290825283015201612cbf612e99565b8152602001612ccc612ec2565b8152602001612cd9612de6565b905290565b60405180610180016040528060608152602001612cf9612e99565b8152602001612d1b604051806040016040528060008152602001600081525090565b8152602001612d28612e99565b8152602001612d35612ef6565b8152604080518082018252600060208083018281528352808501929092528251918201835281529101908152602001612d7a6040518060200160405280600081525090565b8152602001612d956040518060200160405280600081525090565b8152602001612da2612ec2565b8152602001612dc4604051806040016040528060008152602001600081525090565b8152602001612cd9604051806040016040528060008152602001600081525090565b6040518060400160405280612df9612f17565b8152602001612cd9612f17565b60405180602001604052806001906020820280368337509192915050565b60405180606001604052806003906020820280368337509192915050565b60405180608001604052806004906020820280368337509192915050565b6040518060c001604052806006905b6040805180820190915260008082526020820152815260200190600190039081612e6f5790505090565b6040805160c0810190915260006080820181815260a08301919091528152600360208201612e6f565b60405180606001604052806003905b604080516020810190915260008152815260200190600190039081612ed15790505090565b6040805160a081019091526000608082019081528152600360208201612ed1565b60405180604001604052806002906020820280368337509192915050565b600082601f830112612f45578081fd5b8135602067ffffffffffffffff80831115612f6257612f626130f2565b8260051b604051601f19603f83011681018181108482111715612f8757612f876130f2565b60405284815283810192508684018288018501891015612fa5578687fd5b8692505b85831015612fc7578035845292840192600192909201918401612fa9565b50979650505050505050565b60008060408385031215612fe5578182fd5b823567ffffffffffffffff80821115612ffc578384fd5b61300886838701612f35565b9350602085013591508082111561301d578283fd5b5061302a85828601612f35565b9150509250929050565b60008219821115613047576130476130dc565b500190565b600063ffffffff80831681851680830382111561306b5761306b6130dc565b01949350505050565b600081600019048311821515161561308e5761308e6130dc565b500290565b6000828210156130a5576130a56130dc565b500390565b6000816130b9576130b96130dc565b506000190190565b60006000198214156130d5576130d56130dc565b5060010190565b634e487b7160e01b600052601160045260246000fd5b634e487b7160e01b600052604160045260246000fdfe30644e72e131a029b85045b68181585d97816a916871ca8d3c208c16d87cfd4730644e72e131a029b85045b68181585d2833e84879b9709143e1f593f0000001a26469706673582212205f4a70685eef7d9ca98694b21d70cac02ee84a43a843f6e5ca7cfd0cd262232064736f6c63430008030033608060405234801561001057600080fd5b5061317d806100206000396000f3fe608060405234801561001057600080fd5b506004361061002b5760003560e01c8063330deb9f14610030575b600080fd5b61004361003e366004612fd2565b610057565b604051901515815260200160405180910390f35b60008061006261009b565b9050835181602001511461007557600080fd5b6000610081858561055a565b9050600061008f8284610a33565b93505050505b92915050565b6100a3612c55565b6140008152600360208201526100d87f2337acd19f40bf2b2aa212849e9a0c07d626d9ca335d73a09119dbe6eaab3cac610add565b60408201526101277f231c1e51add4d5f6bd1cd66949a0c826d0da068a8aa450c4b910af2723c31a517f27028417323b54c6276a2d96c053172af54b1f0519ad2bb5db2b784f059dd0bb610b18565b6060820151526101777f11da099ae1a4985ae32a03fdbb97c2a1cb01ef699cc2d50215c0444737cb49647f0ddf4c9185e6120ccb58d6e9f379bab948845872394839c501ee56c7afd64e59610b18565b6060820151602001526101ca7f20e65148062f6f99ec3f867ec4ee244c089f5335ef71f783af103ff98f63bae77f2b5c4a2c9a672fbc2ff0c6506d4dd536bd306840f49cc90e3b138aebbcffc9c4610b18565b60608201516040015261021d7f1a2a6887029420c5a7a27152c1b3fb8808047ae0591870b560df431fbd8b242d7f1c6be97981fb344af0d9fa3b80cc1cdc25960ec939bbe66b95dfe7f75fdd4e25610b18565b606082810151015261026f7f19db1bfa3bd755d28ac423de59511ba280b979a59070db6fb4f4fd1b64ffbd917f0b7fb2519d15410ce76f202e832f5bbdc4f069df9d54ffdfab309fcdb70370e7610b18565b6060820151608001526102c27f2c96cfe2874240ba834079924a6dbf2dfb7ea98e199c501a5f14345e0aeef6907f25c13e38aaa3c2c0b30772dbf2a4fdc289a221deb2762f11435a68739561b02e610b18565b606082015160a001526103157f018200c21af09ae5e1f5f35422117b0d012ff224ff1e306a9cf53ac682f6c14d7f2fef6bfafbb8e8bb8a6ee8683ac696fe419ce86fad734b9aea5392b8053c1ce0610b18565b6080820151526103657f227173afa7b62aa1eae6e82370a8eda93726625493aff7205b53f717b21a76207f012fdfa0436e59f249829ba253a3ee732b7cf5ef9f94356831882bd4b6a4fa53610b18565b60a0820151526103b57f17024ade5e72f4121bace0e1b1fc5ce57800ad1928a8bc4005e819f8393367937f06772d03ee37f2d02a2f8ffb1f24f22f3b883814e1f2ab778b60e919598940ae610b18565b60a0820151602001526104087f217e239e463927fa95a98a3b20f73df26241c6d25db3ee9246a9dface4b3f5da7f1e26c860a1b896c46b20267953400d0a0c65db9019299630f75f5f0de561c0d7610b18565b60a08201516040015261045b7f1df7f13fe81d055d2790ff1c1eb09a97ba9c647cd18414da5d394e470ae1dbe37f18a5740ebc4dbafbaa5a284e9dc343d9adb4371cae6ced1d561b94316ed0d04c610b18565b60a08201516060015261046e6005610add565b60c08201515261047e6007610add565b60c082015160200152610491600a610add565b60c08201516002602002018190525061055260405180604001604052807f260e01b251f6f1c7e7ff4e580791dee8ea51d87a358e038b4efe30fac09383c181526020017f0118c4d5b837bcc2bc89b5b398b5974e9f5944073b32078b7e231fec938883b081525060405180604001604052807f04fc6369f7110fe3d25156c1bb9a72859cf2a04641f99ba4ee413c80da6a5fe481526020017f22febda3c0c0632a56475b4214e5615e11e6dd3f96e6cea2854a87d4dacc5e55815250610b43565b60e082015290565b610562612cdd565b602182511461057057600080fd5b825167ffffffffffffffff81111561059857634e487b7160e01b600052604160045260246000fd5b6040519080825280602002602001820160405280156105c1578160200160208202803683370190505b50815260005b8351811015610639578381815181106105f057634e487b7160e01b600052603260045260246000fd5b60200260200101518260000151828151811061061c57634e487b7160e01b600052603260045260246000fd5b602090810291909101015280610631816130c0565b9150506105c7565b506000805b60048110156106f3576106ab84838151811061066a57634e487b7160e01b600052603260045260246000fd5b6020026020010151858460016106809190613033565b8151811061069e57634e487b7160e01b600052603260045260246000fd5b6020026020010151610b4b565b836020015182600481106106cf57634e487b7160e01b600052603260045260246000fd5b60200201526106df600283613033565b9150806106eb816130c0565b91505061063e565b5061072d83828151811061071757634e487b7160e01b600052603260045260246000fd5b6020026020010151848360016106809190613033565b604083015261073d600282613033565b905060005b60048110156107b65761076e84838151811061066a57634e487b7160e01b600052603260045260246000fd5b8360600151826004811061079257634e487b7160e01b600052603260045260246000fd5b60200201526107a2600283613033565b9150806107ae816130c0565b915050610742565b5060005b600481101561083b576107f38483815181106107e657634e487b7160e01b600052603260045260246000fd5b6020026020010151610add565b8360800151826004811061081757634e487b7160e01b600052603260045260246000fd5b6020020152610827600183613033565b915080610833816130c0565b9150506107ba565b5060005b60018110156108b35761086b8483815181106107e657634e487b7160e01b600052603260045260246000fd5b8360a00151826001811061088f57634e487b7160e01b600052603260045260246000fd5b602002015261089f600183613033565b9150806108ab816130c0565b91505061083f565b506108d78382815181106107e657634e487b7160e01b600052603260045260246000fd5b60c08301526108e7600182613033565b905061090c8382815181106107e657634e487b7160e01b600052603260045260246000fd5b60e083015261091c600182613033565b90506109418382815181106107e657634e487b7160e01b600052603260045260246000fd5b610100830152610952600182613033565b905060005b60038110156109cc576109838483815181106107e657634e487b7160e01b600052603260045260246000fd5b83610120015182600381106109a857634e487b7160e01b600052603260045260246000fd5b60200201526109b8600183613033565b9150806109c4816130c0565b915050610957565b506109f083828151811061071757634e487b7160e01b600052603260045260246000fd5b610140830152610a01600282613033565b9050610a2683828151811061071757634e487b7160e01b600052603260045260246000fd5b6101608301525092915050565b6000610aaa6040805161010081018252600060e082018181528252825160208082018552828252808401919091528351808201855282815283850152835180820185528281526060840152835180820185528281526080840152835190810190935282529060a08201908152602001606081525090565b6000610ab7828686610c39565b905080610ac957600092505050610095565b610ad4828686610ff9565b95945050505050565b6040805160208101909152600081526000805160206131288339815191528210610b0657600080fd5b50604080516020810190915290815290565b60408051808201909152600080825260208201525b5060408051808201909152918252602082015290565b610b2d612de5565b604080518082019091526000808252602082015282158015610b6b575081155b15610b8c576040518060400160405280848152602001838152509050610095565b6000805160206131088339815191528310610ba657600080fd5b6000805160206131088339815191528210610bc057600080fd5b60006000805160206131088339815191528384099050600060008051602061310883398151915285860990506000805160206131088339815191528582099050600080516020613108833981519152600382089050808214610c2157600080fd5b50506040805180820190915292835250602082015290565b602081015182515160009114610c4e57600080fd5b600182602001511015610c6057600080fd5b60408051606081018252600080825260208201819052918101829052905b8360200151811015610cda57610cc885600001518281518110610cb157634e487b7160e01b600052603260045260246000fd5b60200260200101518361154990919063ffffffff16565b80610cd2816130c0565b915050610c7e565b5060005b6004811015610d2c57610d1a85602001518260048110610d0e57634e487b7160e01b600052603260045260246000fd5b602002015183906115d7565b80610d24816130c0565b915050610cde565b50610d36816115f7565b6020860152610d44816115f7565b604080870191909152840151610d5b9082906115d7565b610d64816115f7565b855260005b6004811015610dab57610d9985606001518260048110610d0e57634e487b7160e01b600052603260045260246000fd5b80610da3816130c0565b915050610d69565b50610db5816115f7565b60a0860152602083015160009067ffffffffffffffff811115610de857634e487b7160e01b600052604160045260246000fd5b604051908082528060200260200182016040528015610e11578160200160208202803683370190505b50905060005b8151811015610e5e5780828281518110610e4157634e487b7160e01b600052603260045260246000fd5b602090810291909101015280610e56816130c0565b915050610e17565b50610e7781856000015186604001518960a0015161169d565b60c08701526000610e89878787611c59565b905080610e9c5760009350505050610ff2565b60005b6004811015610eed57610edb87608001518260048110610ecf57634e487b7160e01b600052603260045260246000fd5b60200201518590611eec565b80610ee5816130c0565b915050610e9f565b5060005b6001811015610f3357610f218760a001518260018110610ecf57634e487b7160e01b600052603260045260246000fd5b80610f2b816130c0565b915050610ef1565b5060005b6003811015610f7a57610f688761012001518260038110610ecf57634e487b7160e01b600052603260045260246000fd5b80610f72816130c0565b915050610f37565b5060e0860151610f8b908490611eec565b610100860151610f9c908490611eec565b60c0860151610fac908490611eec565b610fb5836115f7565b6060880152610140860151610fcb9084906115d7565b610160860151610fdc9084906115d7565b610fe5836115f7565b6080880152506001925050505b9392505050565b600080611007858585611efa565b835160a087015191925060009161101d91612357565b9050600061104d604080518082018252600080825260209182015281518083019092526001825260029082015290565b9050600061105b6001610add565b905060006110b2886060015160006004811061108757634e487b7160e01b600052603260045260246000fd5b6020020151604080518082019091526000808252602080830191825283518352929092015190915290565b905060006110c06001610add565b905060015b6004811015611129576110d882876123d6565b61110b828b60600151836004811061110057634e487b7160e01b600052603260045260246000fd5b6020020151906123f0565b9450611117838661240f565b80611121816130c0565b9150506110c5565b5060608a015161113a9084906123d6565b611144828761240f565b60005b60048110156111a65760608b01516111609085906123d6565b611188848b60200151836004811061110057634e487b7160e01b600052603260045260246000fd5b9450611194838661240f565b8061119e816130c0565b915050611147565b5060005b6111b660016004613092565b8110156112135760608b01516111cd9085906123d6565b6111f5848a60a00151836004811061110057634e487b7160e01b600052603260045260246000fd5b9450611201838661240f565b8061120b816130c0565b9150506111aa565b5060608a01516112249084906123d6565b60608a01516112349084906123d6565b8251815260808a01516112489082906123d6565b61127d818a602001516001600461125f9190613092565b6004811061110057634e487b7160e01b600052603260045260246000fd5b9350611289828561240f565b6112936001610add565b925060006112b58a60e001516040805160208101909152600081529051815290565b90506112ce8b60600151856123d690919063ffffffff16565b6101008a01515182526112e182856123d6565b6112eb818361241f565b60005b600481101561135e5760608c01516113079086906123d6565b6113388b60800151826004811061132e57634e487b7160e01b600052603260045260246000fd5b6020020151518452565b61134283866123d6565b61134c828461241f565b80611356816130c0565b9150506112ee565b5060005b60038110156113c95760608c015161137b9086906123d6565b6113a38b6101200151826003811061132e57634e487b7160e01b600052603260045260246000fd5b6113ad83866123d6565b6113b7828461241f565b806113c1816130c0565b915050611362565b5060608b01516113da9085906123d6565b60c08a01515182526113ec82856123d6565b60808b01516113fc9083906123d6565b611406818361241f565b60608b01516114169085906123d6565b60a08a01515151825261142982856123d6565b60808b01516114399083906123d6565b611443818361241f565b61148361147c82611476604080518082018252600080825260209182015281518083019092526001825260029082015290565b906123f0565b8490612439565b60a08b01516101408b015184916114a49161149d916123f0565b829061240f565b60a08c015151835260408a01516114bc9084906123d6565b60808c01516114cc9084906123d6565b6101608b01516114e09061149d90856123f0565b60006114fe8d608001518d61016001516123f090919063ffffffff16565b90506115188c61014001518261240f90919063ffffffff16565b61152181612444565b6115388261152d612484565b838e60e00151612544565b9d9c50505050505050505050505050565b81516020808401516040516000928101929092526024820183905260448201526064810183905260840160408051808303601f1901815291815281516020928301208552848201519051600160e01b928101929092526024820183905260448201526064810183905260840160408051601f1981840301815291905280516020918201209301929092525050565b6115e5828260000151611549565b6115f3828260200151611549565b5050565b60408051602081019091526000815281516020808401516040808601519051600160e11b938101939093526024830193909352604482015260e09190911b6001600160e01b0319166064820152600090606801604051602081830303815290604052805190602001209050600183604001818151611675919061304b565b63ffffffff1690525060408051602081019091526001600160fd1b0391909116815292915050565b606060006116ab6001610add565b905060006116b96000610add565b905060006116c687610add565b905060006116d48689612357565b90506116e08185612687565b80516116eb57600080fd5b6000895167ffffffffffffffff81111561171557634e487b7160e01b600052604160045260246000fd5b60405190808252806020026020018201604052801561175557816020015b6040805160208101909152600081528152602001906001900390816117335790505b50905060008a5167ffffffffffffffff81111561178257634e487b7160e01b600052604160045260246000fd5b6040519080825280602002602001820160405280156117c257816020015b6040805160208101909152600081528152602001906001900390816117a05790505b50905060005b8b518110156119155761180b8c82815181106117f457634e487b7160e01b600052603260045260246000fd5b60200260200101518b61235790919063ffffffff16565b95506118478484838151811061183157634e487b7160e01b600052603260045260246000fd5b602002602001015161241a90919063ffffffff16565b6118818684838151811061186b57634e487b7160e01b600052603260045260246000fd5b60200260200101516123d690919063ffffffff16565b6118a58983838151811061183157634e487b7160e01b600052603260045260246000fd5b6118df868383815181106118c957634e487b7160e01b600052603260045260246000fd5b602002602001015161268790919063ffffffff16565b6119038583838151811061186b57634e487b7160e01b600052603260045260246000fd5b8061190d816130c0565b9150506117c8565b5060008b5167ffffffffffffffff81111561194057634e487b7160e01b600052604160045260246000fd5b60405190808252806020026020018201604052801561198057816020015b60408051602081019091526000815281526020019060019003908161195e5790505b5090506119b16119906001610add565b8260008151811061183157634e487b7160e01b600052603260045260246000fd5b60015b8251811015611a7957611a12836119cc600184613092565b815181106119ea57634e487b7160e01b600052603260045260246000fd5b602002602001015183838151811061183157634e487b7160e01b600052603260045260246000fd5b611a6782611a21600184613092565b81518110611a3f57634e487b7160e01b600052603260045260246000fd5b602002602001015183838151811061186b57634e487b7160e01b600052603260045260246000fd5b80611a71816130c0565b9150506119b4565b50611ac18160018351611a8c9190613092565b81518110611aaa57634e487b7160e01b600052603260045260246000fd5b60200260200101518661241a90919063ffffffff16565b611b088260018451611ad39190613092565b81518110611af157634e487b7160e01b600052603260045260246000fd5b6020026020010151866123d690919063ffffffff16565b611b11856126b9565b9450600060018351611b239190613092565b90505b85518752611b64828281518110611b4d57634e487b7160e01b600052603260045260246000fd5b6020026020010151886123d690919063ffffffff16565b611b9e838281518110611b8757634e487b7160e01b600052603260045260246000fd5b6020026020010151876123d690919063ffffffff16565b611bc28784838151811061183157634e487b7160e01b600052603260045260246000fd5b80611bcc57611bde565b80611bd6816130a9565b915050611b26565b5060005b8351811015611c4857611c36838281518110611c0e57634e487b7160e01b600052603260045260246000fd5b602002602001015185838151811061186b57634e487b7160e01b600052603260045260246000fd5b80611c40816130c0565b915050611be2565b50919b9a5050505050505050505050565b600080611c6e83600001518660a001516126f5565b8051909150611c7c57600080fd5b60e0840151611c8c9082906123d6565b6000611c986001610add565b90506000611cbb8661010001516040805160208101909152600081529051815290565b90506000611cc96000610add565b905060005b875151811015611d6357611d168960c001518281518110611cff57634e487b7160e01b600052603260045260246000fd5b60200260200101518361241a90919063ffffffff16565b611d47611d40896000015183815181106107e657634e487b7160e01b600052603260045260246000fd5b83906123d6565b611d51838361241f565b80611d5b816130c0565b915050611cce565b508751611d719084906123d6565b60c08701516040805160208101909152600080825291518152905b6003811015611e2c57611dbd896101200151826003811061132e57634e487b7160e01b600052603260045260246000fd5b60208a0151611dcd9084906123d6565b60408a0151611ddd90849061241f565b611e1089608001518260048110611e0457634e487b7160e01b600052603260045260246000fd5b6020020151849061241f565b611e1a82846123d6565b80611e24816130c0565b915050611d8c565b5060408901515182526080880151611e7490611e4a60016004613092565b60048110611e6857634e487b7160e01b600052603260045260246000fd5b6020020151839061241f565b611e7e81836123d6565b611e8881856123d6565b611e928382612687565b8851611e9f9085906123d6565b611ec78960c00151600081518110611cff57634e487b7160e01b600052603260045260246000fd5b611ed182856123d6565b611edb8383612687565b505051915190911495945050505050565b6115f3828260000151611549565b6040805180820190915260008082526020820152600060016004611f1f816002613033565b611f299190613033565b611f339190613092565b9050611f69836060015160046001611f4b9190613033565b6006811061108757634e487b7160e01b600052603260045260246000fd5b91506000611f99604080518082018252600080825260209182015281518083019092526001825260029082015290565b90506000611fa76000610add565b905060005b60048110156120235761200587608001518260048110611fdc57634e487b7160e01b600052603260045260246000fd5b60200201518760600151836006811061110057634e487b7160e01b600052603260045260246000fd5b9250612011858461240f565b8061201b816130c0565b915050611fac565b5060808601805151518252516020015161203e9082906123d6565b60608501516120509082906004611100565b915061205c848361240f565b60a086015151608086015161207391906000611100565b915061207f848361240f565b60a087015160408051602080820190925260008152915182528801516120a69082906123d6565b6080870151516120b790829061241f565b60408801516120c790829061241f565b60005b600381101561217c5760a089015151835261210e8760c00151826003811061210257634e487b7160e01b600052603260045260246000fd5b602002015184906123d6565b602089015161211e9084906123d6565b604089015161212e90849061241f565b608088015161216090612142836001613033565b60048110611e0457634e487b7160e01b600052603260045260246000fd5b61216a82846123d6565b80612174816130c0565b9150506120ca565b50875161218a9082906123d6565b6121b28860c00151600081518110611cff57634e487b7160e01b600052603260045260246000fd5b87516121bf9083906123d6565b87516121cc9083906123d6565b6121d6818361241f565b60608801516000906121e89086612357565b90506122018960800151826123d690919063ffffffff16565b600061220d6001610add565b905060005b60038110156122b65760208b01515185526122578a6101200151826003811061224b57634e487b7160e01b600052603260045260246000fd5b602002015186906123d6565b60408b015161226790869061241f565b61229a8a60800151826004811061228e57634e487b7160e01b600052603260045260246000fd5b6020020151869061241f565b6122a482866123d6565b806122ae816130c0565b915050612212565b5060208a01516122c79082906123d6565b60c08901516122d79082906123d6565b89516122e49082906123d6565b60408901516122f390846123f0565b945061231661230f828a60a001516001600461125f9190613092565b8690612439565b612320878661240f565b60608a0151612330908890612724565b604089015161234a9061234390846123f0565b889061240f565b5050505050509392505050565b604080516020808201835260008252825160c08101845281815280820182905292830152835160608301526080820183905260008051602061312883398151915260a0830152906123a6612e05565b600060208260c08560055afa9050806123be57600080fd5b50604080516020810190915290518152949350505050565b600080516020613128833981519152815183510990915250565b604080518082019091526000808252602082015261009583838361272b565b6115f382828461276d565b519052565b600080516020613128833981519152815183510890915250565b6115f3828284612805565b602081015161245e5780511561245957600080fd5b612481565b602081015161247b90600080516020613108833981519152613092565b60208201525b50565b61248c612de5565b50604080516080810182527f198e9393920d483a7260bfb731fb5d25f1aa493335a9e71297e485b7aef312c28183019081527f1800deef121f1e76426a00665e5c4479674322d4f75edadd46debd5cd992f6ed6060830152815281518083019092527f090689d0585ff075ec9e99ad690c3395bc4b313370b38ef355acdadcd122975b82527f12c85ea5db8c6deb4aab71808dcb408fe3d1e7690c43d37b4ce6cc0166fa7daa60208381019190915281019190915290565b60408051600280825260608201909252600091829190816020015b604080518082019091526000808252602082015281526020019060019003908161255f5750506040805160028082526060820190925291925060009190602082015b6125a9612de5565b8152602001906001900390816125a157905050905086826000815181106125e057634e487b7160e01b600052603260045260246000fd5b6020026020010181905250848260018151811061260d57634e487b7160e01b600052603260045260246000fd5b6020026020010181905250858160008151811061263a57634e487b7160e01b600052603260045260246000fd5b6020026020010181905250838160018151811061266757634e487b7160e01b600052603260045260246000fd5b602002602001018190525061267c82826128af565b979650505050505050565b60008051602061312883398151915281516126b090600080516020613128833981519152613092565b83510890915250565b60408051602081019091526000815281516126d357600080fd5b610095826126f06002600080516020613128833981519152613092565b612357565b60408051602081019091526000815261270e8284612357565b905061009561271d6001610add565b8290612687565b6115f38282845b612733612e23565b835181526020840151816001602002015282518160026020020152600060408360608460075afa90508061276657600080fd5b5050505050565b815115801561277e57506020820151155b15612796578251815260208084015190820152612800565b82511580156127a757506020830151155b156127bf578151815260208083015190820152612800565b6127c7612e41565b8351815260208085015181830152835160408301528301518160035b6020020152600060408360808460065afa90508061276657600080fd5b505050565b815115801561281657506020820151155b1561282e578251815260208084015190820152612800565b825115801561283f57506020830151155b1561286f5781518152602082015161286590600080516020613108833981519152613092565b6020820152612800565b612877612e41565b8351815260208085015181830152835160408301528301516128a790600080516020613108833981519152613092565b8160036127e3565b600081518351146128bf57600080fd5b825160006128ce826006613073565b905060008167ffffffffffffffff8111156128f957634e487b7160e01b600052604160045260246000fd5b604051908082528060200260200182016040528015612922578160200160208202803683370190505b50905060005b83811015612c215786818151811061295057634e487b7160e01b600052603260045260246000fd5b6020026020010151600001518282600661296a9190613073565b612975906000613033565b8151811061299357634e487b7160e01b600052603260045260246000fd5b6020026020010181815250508681815181106129bf57634e487b7160e01b600052603260045260246000fd5b602002602001015160200151828260066129d99190613073565b6129e4906001613033565b81518110612a0257634e487b7160e01b600052603260045260246000fd5b602002602001018181525050858181518110612a2e57634e487b7160e01b600052603260045260246000fd5b6020908102919091010151515182612a47836006613073565b612a52906002613033565b81518110612a7057634e487b7160e01b600052603260045260246000fd5b602002602001018181525050858181518110612a9c57634e487b7160e01b600052603260045260246000fd5b60209081029190910181015151015182612ab7836006613073565b612ac2906003613033565b81518110612ae057634e487b7160e01b600052603260045260246000fd5b602002602001018181525050858181518110612b0c57634e487b7160e01b600052603260045260246000fd5b602002602001015160200151600060028110612b3857634e487b7160e01b600052603260045260246000fd5b602002015182612b49836006613073565b612b54906004613033565b81518110612b7257634e487b7160e01b600052603260045260246000fd5b602002602001018181525050858181518110612b9e57634e487b7160e01b600052603260045260246000fd5b602002602001015160200151600160028110612bca57634e487b7160e01b600052603260045260246000fd5b602002015182612bdb836006613073565b612be6906005613033565b81518110612c0457634e487b7160e01b600052603260045260246000fd5b602090810291909101015280612c19816130c0565b915050612928565b50612c2a612e05565b6000602082602086026020860160085afa905080612c4757600080fd5b505115159695505050505050565b6040518061010001604052806000815260200160008152602001612c856040518060200160405280600081525090565b8152602001612c92612e5f565b815260408051606081018252600060208083018281528385019290925290825283015201612cbe612e98565b8152602001612ccb612ec1565b8152602001612cd8612de5565b905290565b60405180610180016040528060608152602001612cf8612e98565b8152602001612d1a604051806040016040528060008152602001600081525090565b8152602001612d27612e98565b8152602001612d34612ef5565b8152604080518082018252600060208083018281528352808501929092528251918201835281529101908152602001612d796040518060200160405280600081525090565b8152602001612d946040518060200160405280600081525090565b8152602001612da1612ec1565b8152602001612dc3604051806040016040528060008152602001600081525090565b8152602001612cd8604051806040016040528060008152602001600081525090565b6040518060400160405280612df8612f16565b8152602001612cd8612f16565b60405180602001604052806001906020820280368337509192915050565b60405180606001604052806003906020820280368337509192915050565b60405180608001604052806004906020820280368337509192915050565b6040518060c001604052806006905b6040805180820190915260008082526020820152815260200190600190039081612e6e5790505090565b6040805160c0810190915260006080820181815260a08301919091528152600360208201612e6e565b60405180606001604052806003905b604080516020810190915260008152815260200190600190039081612ed05790505090565b6040805160a081019091526000608082019081528152600360208201612ed0565b60405180604001604052806002906020820280368337509192915050565b600082601f830112612f44578081fd5b8135602067ffffffffffffffff80831115612f6157612f616130f1565b8260051b604051601f19603f83011681018181108482111715612f8657612f866130f1565b60405284815283810192508684018288018501891015612fa4578687fd5b8692505b85831015612fc6578035845292840192600192909201918401612fa8565b50979650505050505050565b60008060408385031215612fe4578182fd5b823567ffffffffffffffff80821115612ffb578384fd5b61300786838701612f34565b9350602085013591508082111561301c578283fd5b5061302985828601612f34565b9150509250929050565b60008219821115613046576130466130db565b500190565b600063ffffffff80831681851680830382111561306a5761306a6130db565b01949350505050565b600081600019048311821515161561308d5761308d6130db565b500290565b6000828210156130a4576130a46130db565b500390565b6000816130b8576130b86130db565b506000190190565b60006000198214156130d4576130d46130db565b5060010190565b634e487b7160e01b600052601160045260246000fd5b634e487b7160e01b600052604160045260246000fdfe30644e72e131a029b85045b68181585d97816a916871ca8d3c208c16d87cfd4730644e72e131a029b85045b68181585d2833e84879b9709143e1f593f0000001a264697066735822122088a5f4eb3034fed0f2c71230bf90a7ca5b70e7063e1a8106579d22d167b5bce164736f6c63430008030033",
  "linkReferences": {},
  "deployedLinkReferences": {}
}